{
  "contractName": "carrierOrders",
  "abi": [
    {
      "constant": true,
      "inputs": [],
      "name": "numOrders",
      "outputs": [
        {
          "name": "",
          "type": "uint256"
        }
      ],
      "payable": false,
      "stateMutability": "view",
      "type": "function"
    },
    {
      "inputs": [
        {
          "name": "_CarrierName",
          "type": "string"
        }
      ],
      "payable": false,
      "stateMutability": "nonpayable",
      "type": "constructor"
    },
    {
      "constant": true,
      "inputs": [],
      "name": "returnCarrier",
      "outputs": [
        {
          "name": "_Carrier",
          "type": "string"
        },
        {
          "name": "_Address",
          "type": "address"
        },
        {
          "name": "_NumOrders",
          "type": "uint256"
        }
      ],
      "payable": false,
      "stateMutability": "view",
      "type": "function"
    },
    {
      "constant": true,
      "inputs": [],
      "name": "returnCarrierName",
      "outputs": [
        {
          "name": "_Carrier",
          "type": "string"
        }
      ],
      "payable": false,
      "stateMutability": "view",
      "type": "function"
    },
    {
      "constant": true,
      "inputs": [],
      "name": "returnCarrierAddress",
      "outputs": [
        {
          "name": "_Carrier",
          "type": "address"
        }
      ],
      "payable": false,
      "stateMutability": "view",
      "type": "function"
    },
    {
      "constant": true,
      "inputs": [],
      "name": "getNumOrders",
      "outputs": [
        {
          "name": "_NumOrders",
          "type": "uint256"
        }
      ],
      "payable": false,
      "stateMutability": "view",
      "type": "function"
    },
    {
      "constant": false,
      "inputs": [
        {
          "name": "_OrderNo",
          "type": "string"
        },
        {
          "name": "_Status",
          "type": "string"
        },
        {
          "name": "_StatusDate",
          "type": "uint256"
        }
      ],
      "name": "addOrderToCarrier",
      "outputs": [],
      "payable": false,
      "stateMutability": "nonpayable",
      "type": "function"
    },
    {
      "constant": false,
      "inputs": [
        {
          "name": "_OrderId",
          "type": "uint256"
        },
        {
          "name": "_Status",
          "type": "string"
        },
        {
          "name": "_StatusDate",
          "type": "uint256"
        }
      ],
      "name": "setOrderStatus",
      "outputs": [],
      "payable": false,
      "stateMutability": "nonpayable",
      "type": "function"
    },
    {
      "constant": true,
      "inputs": [
        {
          "name": "_OrderId",
          "type": "uint256"
        }
      ],
      "name": "getOrder",
      "outputs": [
        {
          "name": "_RetOrderId",
          "type": "uint256"
        },
        {
          "name": "orderNo",
          "type": "string"
        },
        {
          "name": "status",
          "type": "string"
        },
        {
          "name": "_statusDate",
          "type": "uint256"
        }
      ],
      "payable": false,
      "stateMutability": "view",
      "type": "function"
    }
  ],
  "bytecode": "0x60806040523480156200001157600080fd5b5060405162000f0938038062000f098339810180604052810190808051820192919050505080600090805190602001906200004e92919062000354565b5033600160006101000a81548173ffffffffffffffffffffffffffffffffffffffff021916908373ffffffffffffffffffffffffffffffffffffffff160217905550620001166040805190810160405280600981526020017f4f72646572204f6e6500000000000000000000000000000000000000000000008152506040805190810160405280600781526020017f437265617465640000000000000000000000000000000000000000000000000081525042620002af640100000000026401000000009004565b6200019c6040805190810160405280600981526020017f4f726465722054776f00000000000000000000000000000000000000000000008152506040805190810160405280600781526020017f437265617465640000000000000000000000000000000000000000000000000081525042620002af640100000000026401000000009004565b620002226040805190810160405280600b81526020017f4f726465722054687265650000000000000000000000000000000000000000008152506040805190810160405280600781526020017f437265617465640000000000000000000000000000000000000000000000000081525042620002af640100000000026401000000009004565b620002a86040805190810160405280600a81526020017f4f7264657220466f7572000000000000000000000000000000000000000000008152506040805190810160405280600781526020017f437265617465640000000000000000000000000000000000000000000000000081525042620002af640100000000026401000000009004565b506200048a565b60026000815480929190600101919050555060806040519081016040528060025481526020018481526020018381526020018281525060036000600254815260200190815260200160002060008201518160000155602082015181600101908051906020019062000322929190620003db565b50604082015181600201908051906020019062000341929190620003db565b5060608201518160030155905050505050565b828054600181600116156101000203166002900490600052602060002090601f016020900481019282601f106200039757805160ff1916838001178555620003c8565b82800160010185558215620003c8579182015b82811115620003c7578251825591602001919060010190620003aa565b5b509050620003d7919062000462565b5090565b828054600181600116156101000203166002900490600052602060002090601f016020900481019282601f106200041e57805160ff19168380011785556200044f565b828001600101855582156200044f579182015b828111156200044e57825182559160200191906001019062000431565b5b5090506200045e919062000462565b5090565b6200048791905b808211156200048357600081600090555060010162000469565b5090565b90565b610a6f806200049a6000396000f30060806040526004361061008e576000357c0100000000000000000000000000000000000000000000000000000000900463ffffffff16806345d53788146100935780634912ce1c146100be57806362ae3382146100e957806396b0ccbd146101b3578063b36d88e21461020a578063bb734a931461029a578063d09ef24114610317578063f799eb7814610437575b600080fd5b34801561009f57600080fd5b506100a86104f0565b6040518082815260200191505060405180910390f35b3480156100ca57600080fd5b506100d36104f6565b6040518082815260200191505060405180910390f35b3480156100f557600080fd5b506100fe610500565b60405180806020018473ffffffffffffffffffffffffffffffffffffffff1673ffffffffffffffffffffffffffffffffffffffff168152602001838152602001828103825285818151815260200191508051906020019080838360005b8381101561017657808201518184015260208101905061015b565b50505050905090810190601f1680156101a35780820380516001836020036101000a031916815260200191505b5094505050505060405180910390f35b3480156101bf57600080fd5b506101c86105d4565b604051808273ffffffffffffffffffffffffffffffffffffffff1673ffffffffffffffffffffffffffffffffffffffff16815260200191505060405180910390f35b34801561021657600080fd5b5061021f6105fe565b6040518080602001828103825283818151815260200191508051906020019080838360005b8381101561025f578082015181840152602081019050610244565b50505050905090810190601f16801561028c5780820380516001836020036101000a031916815260200191505b509250505060405180910390f35b3480156102a657600080fd5b5061031560048036038101908080359060200190929190803590602001908201803590602001908080601f0160208091040260200160405190810160405280939291908181526020018383808284378201915050505050509192919290803590602001909291905050506106a0565b005b34801561032357600080fd5b50610342600480360381019080803590602001909291905050506106eb565b604051808581526020018060200180602001848152602001838103835286818151815260200191508051906020019080838360005b83811015610392578082015181840152602081019050610377565b50505050905090810190601f1680156103bf5780820380516001836020036101000a031916815260200191505b50838103825285818151815260200191508051906020019080838360005b838110156103f85780820151818401526020810190506103dd565b50505050905090810190601f1680156104255780820380516001836020036101000a031916815260200191505b50965050505050505060405180910390f35b34801561044357600080fd5b506104ee600480360381019080803590602001908201803590602001908080601f0160208091040260200160405190810160405280939291908181526020018383808284378201915050505050509192919290803590602001908201803590602001908080601f01602080910402602001604051908101604052809392919081815260200183838082843782019150505050505091929192908035906020019092919050505061087d565b005b60025481565b6000600254905090565b60606000806000600160009054906101000a900473ffffffffffffffffffffffffffffffffffffffff16600254828054600181600116156101000203166002900480601f0160208091040260200160405190810160405280929190818152602001828054600181600116156101000203166002900480156105c25780601f10610597576101008083540402835291602001916105c2565b820191906000526020600020905b8154815290600101906020018083116105a557829003601f168201915b50505050509250925092509250909192565b6000600160009054906101000a900473ffffffffffffffffffffffffffffffffffffffff16905090565b606060008054600181600116156101000203166002900480601f0160208091040260200160405190810160405280929190818152602001828054600181600116156101000203166002900480156106965780601f1061066b57610100808354040283529160200191610696565b820191906000526020600020905b81548152906001019060200180831161067957829003601f168201915b5050505050905090565b816003600085815260200190815260200160002060020190805190602001906106ca92919061091e565b50806003600085815260200190815260200160002060030181905550505050565b600060608060008460036000878152602001908152602001600020600101600360008881526020019081526020016000206002016003600089815260200190815260200160002060030154828054600181600116156101000203166002900480601f0160208091040260200160405190810160405280929190818152602001828054600181600116156101000203166002900480156107cb5780601f106107a0576101008083540402835291602001916107cb565b820191906000526020600020905b8154815290600101906020018083116107ae57829003601f168201915b50505050509250818054600181600116156101000203166002900480601f0160208091040260200160405190810160405280929190818152602001828054600181600116156101000203166002900480156108675780601f1061083c57610100808354040283529160200191610867565b820191906000526020600020905b81548152906001019060200180831161084a57829003601f168201915b5050505050915093509350935093509193509193565b6002600081548092919060010191905055506080604051908101604052806002548152602001848152602001838152602001828152506003600060025481526020019081526020016000206000820151816000015560208201518160010190805190602001906108ee92919061099e565b50604082015181600201908051906020019061090b92919061099e565b5060608201518160030155905050505050565b828054600181600116156101000203166002900490600052602060002090601f016020900481019282601f1061095f57805160ff191683800117855561098d565b8280016001018555821561098d579182015b8281111561098c578251825591602001919060010190610971565b5b50905061099a9190610a1e565b5090565b828054600181600116156101000203166002900490600052602060002090601f016020900481019282601f106109df57805160ff1916838001178555610a0d565b82800160010185558215610a0d579182015b82811115610a0c5782518255916020019190600101906109f1565b5b509050610a1a9190610a1e565b5090565b610a4091905b80821115610a3c576000816000905550600101610a24565b5090565b905600a165627a7a7230582012cc6ccbda2b075b36caebb438baa7e209b1caed4979bbaa89c8fd9c447c9db70029",
  "source": "pragma solidity 0.4.24;\n\ncontract carrierOrders\n{\n    string carrierName;\n    address carrierAddress;\n    struct order {\n        uint id;\n        string orderNo;\n        string status;\n        uint256 statusDate;\n    }\n\n    uint public numOrders;\n    mapping (uint => order) orders;\n\n    constructor(string _CarrierName) public {\n        carrierName = _CarrierName;\n        carrierAddress = msg.sender;\n        addOrderToCarrier(\"Order One\", \"Created\", block.timestamp);\n        addOrderToCarrier(\"Order Two\", \"Created\", block.timestamp);\n        addOrderToCarrier(\"Order Three\", \"Created\", block.timestamp);\n        addOrderToCarrier(\"Order Four\", \"Created\", block.timestamp);\n    }\n\n    function returnCarrier() public view returns (string _Carrier, address _Address, uint _NumOrders) {\n        return (carrierName, carrierAddress, numOrders);\n    }\n\n    function returnCarrierName() public view returns (string _Carrier){\n        return (carrierName);\n    }\n\n    function returnCarrierAddress() public view returns (address _Carrier){\n        return (carrierAddress);\n    }\n\n    function getNumOrders()  public view returns (uint _NumOrders){\n        return (numOrders);\n    }\n\n    function addOrderToCarrier(string _OrderNo, string _Status, uint256 _StatusDate) public  {\n        numOrders++;\n        orders[numOrders] = order(numOrders, _OrderNo, _Status, _StatusDate);\n    }\n\n    function setOrderStatus(uint _OrderId, string _Status, uint256 _StatusDate) public  {\n        orders[_OrderId].status = _Status;\n        orders[_OrderId].statusDate = _StatusDate;\n    }\n\n    function getOrder(uint _OrderId) public view returns (uint _RetOrderId,string orderNo, string status, uint256 _statusDate) {\n        return (_OrderId, orders[_OrderId].orderNo, orders[_OrderId].status, orders[_OrderId].statusDate);\n    }\n}",
  "sourcePath": "/Users/frankblau/election/contracts/carrierOrders.sol",
  "compiler": {
    "name": "solc",
    "version": "0.4.24+commit.e67f0147.Emscripten.clang"
  },
  "schemaVersion": "2.0.1",
  "updatedAt": "2018-11-07T21:11:37.022Z"
}