{
  "contractName": "carrierOrders",
  "abi": [
    {
      "constant": true,
      "inputs": [],
      "name": "numOrders",
      "outputs": [
        {
          "name": "",
          "type": "uint256"
        }
      ],
      "payable": false,
      "stateMutability": "view",
      "type": "function"
    },
    {
      "inputs": [],
      "payable": false,
      "stateMutability": "nonpayable",
      "type": "constructor"
    },
    {
      "constant": true,
      "inputs": [],
      "name": "returnCarrierName",
      "outputs": [
        {
          "name": "_Carrier",
          "type": "string"
        }
      ],
      "payable": false,
      "stateMutability": "view",
      "type": "function"
    },
    {
      "constant": true,
      "inputs": [],
      "name": "getNumOrders",
      "outputs": [
        {
          "name": "_NumOrders",
          "type": "uint256"
        }
      ],
      "payable": false,
      "stateMutability": "view",
      "type": "function"
    },
    {
      "constant": false,
      "inputs": [
        {
          "name": "_OrderNo",
          "type": "string"
        },
        {
          "name": "_Status",
          "type": "string"
        },
        {
          "name": "_StatusDate",
          "type": "uint256"
        }
      ],
      "name": "addOrderToCarrier",
      "outputs": [],
      "payable": false,
      "stateMutability": "nonpayable",
      "type": "function"
    },
    {
      "constant": false,
      "inputs": [
        {
          "name": "_OrderId",
          "type": "uint256"
        },
        {
          "name": "_Status",
          "type": "string"
        },
        {
          "name": "_StatusDate",
          "type": "uint256"
        }
      ],
      "name": "setOrderStatus",
      "outputs": [],
      "payable": false,
      "stateMutability": "nonpayable",
      "type": "function"
    },
    {
      "constant": true,
      "inputs": [
        {
          "name": "_OrderId",
          "type": "uint256"
        }
      ],
      "name": "getOrder",
      "outputs": [
        {
          "name": "_RetOrderId",
          "type": "uint256"
        },
        {
          "name": "orderNo",
          "type": "string"
        },
        {
          "name": "status",
          "type": "string"
        },
        {
          "name": "_statusDate",
          "type": "uint256"
        }
      ],
      "payable": false,
      "stateMutability": "view",
      "type": "function"
    }
  ],
  "bytecode": "0x608060405234801561001057600080fd5b506040805190810160405280600b81526020017f43617272696572204f6e650000000000000000000000000000000000000000008152506000908051906020019061005c92919061020b565b506100e16040805190810160405280600981526020017f4f72646572204f6e6500000000000000000000000000000000000000000000008152506040805190810160405280600781526020017f43726561746564000000000000000000000000000000000000000000000000008152504261016a640100000000026401000000009004565b6101656040805190810160405280600981526020017f4f726465722054776f00000000000000000000000000000000000000000000008152506040805190810160405280600781526020017f43726561746564000000000000000000000000000000000000000000000000008152504261016a640100000000026401000000009004565b610330565b6001600081548092919060010191905055506080604051908101604052806001548152602001848152602001838152602001828152506002600060015481526020019081526020016000206000820151816000015560208201518160010190805190602001906101db92919061028b565b5060408201518160020190805190602001906101f892919061028b565b5060608201518160030155905050505050565b828054600181600116156101000203166002900490600052602060002090601f016020900481019282601f1061024c57805160ff191683800117855561027a565b8280016001018555821561027a579182015b8281111561027957825182559160200191906001019061025e565b5b509050610287919061030b565b5090565b828054600181600116156101000203166002900490600052602060002090601f016020900481019282601f106102cc57805160ff19168380011785556102fa565b828001600101855582156102fa579182015b828111156102f95782518255916020019190600101906102de565b5b509050610307919061030b565b5090565b61032d91905b80821115610329576000816000905550600101610311565b5090565b90565b61083a8061033f6000396000f300608060405260043610610078576000357c0100000000000000000000000000000000000000000000000000000000900463ffffffff16806345d537881461007d5780634912ce1c146100a8578063b36d88e2146100d3578063bb734a9314610163578063d09ef241146101e0578063f799eb7814610300575b600080fd5b34801561008957600080fd5b506100926103b9565b6040518082815260200191505060405180910390f35b3480156100b457600080fd5b506100bd6103bf565b6040518082815260200191505060405180910390f35b3480156100df57600080fd5b506100e86103c9565b6040518080602001828103825283818151815260200191508051906020019080838360005b8381101561012857808201518184015260208101905061010d565b50505050905090810190601f1680156101555780820380516001836020036101000a031916815260200191505b509250505060405180910390f35b34801561016f57600080fd5b506101de60048036038101908080359060200190929190803590602001908201803590602001908080601f01602080910402602001604051908101604052809392919081815260200183838082843782019150505050505091929192908035906020019092919050505061046b565b005b3480156101ec57600080fd5b5061020b600480360381019080803590602001909291905050506104b6565b604051808581526020018060200180602001848152602001838103835286818151815260200191508051906020019080838360005b8381101561025b578082015181840152602081019050610240565b50505050905090810190601f1680156102885780820380516001836020036101000a031916815260200191505b50838103825285818151815260200191508051906020019080838360005b838110156102c15780820151818401526020810190506102a6565b50505050905090810190601f1680156102ee5780820380516001836020036101000a031916815260200191505b50965050505050505060405180910390f35b34801561030c57600080fd5b506103b7600480360381019080803590602001908201803590602001908080601f0160208091040260200160405190810160405280939291908181526020018383808284378201915050505050509192919290803590602001908201803590602001908080601f016020809104026020016040519081016040528093929190818152602001838380828437820191505050505050919291929080359060200190929190505050610648565b005b60015481565b6000600154905090565b606060008054600181600116156101000203166002900480601f0160208091040260200160405190810160405280929190818152602001828054600181600116156101000203166002900480156104615780601f1061043657610100808354040283529160200191610461565b820191906000526020600020905b81548152906001019060200180831161044457829003601f168201915b5050505050905090565b816002600085815260200190815260200160002060020190805190602001906104959291906106e9565b50806002600085815260200190815260200160002060030181905550505050565b600060608060008460026000878152602001908152602001600020600101600260008881526020019081526020016000206002016002600089815260200190815260200160002060030154828054600181600116156101000203166002900480601f0160208091040260200160405190810160405280929190818152602001828054600181600116156101000203166002900480156105965780601f1061056b57610100808354040283529160200191610596565b820191906000526020600020905b81548152906001019060200180831161057957829003601f168201915b50505050509250818054600181600116156101000203166002900480601f0160208091040260200160405190810160405280929190818152602001828054600181600116156101000203166002900480156106325780601f1061060757610100808354040283529160200191610632565b820191906000526020600020905b81548152906001019060200180831161061557829003601f168201915b5050505050915093509350935093509193509193565b6001600081548092919060010191905055506080604051908101604052806001548152602001848152602001838152602001828152506002600060015481526020019081526020016000206000820151816000015560208201518160010190805190602001906106b9929190610769565b5060408201518160020190805190602001906106d6929190610769565b5060608201518160030155905050505050565b828054600181600116156101000203166002900490600052602060002090601f016020900481019282601f1061072a57805160ff1916838001178555610758565b82800160010185558215610758579182015b8281111561075757825182559160200191906001019061073c565b5b50905061076591906107e9565b5090565b828054600181600116156101000203166002900490600052602060002090601f016020900481019282601f106107aa57805160ff19168380011785556107d8565b828001600101855582156107d8579182015b828111156107d75782518255916020019190600101906107bc565b5b5090506107e591906107e9565b5090565b61080b91905b808211156108075760008160009055506001016107ef565b5090565b905600a165627a7a72305820e9359b755e47378edc4be2e7b1134ad6a7273c74e7ef0b9fbc2be9c38e79cab80029",
  "source": "pragma solidity 0.4.24;\n\ncontract carrierOrders\n{\n    string carrierName;\n    struct order {\n        uint id;\n        string orderNo;\n        string status;\n        uint256 statusDate;\n    }\n\n    uint public numOrders;\n    mapping (uint => order) orders;\n\n    constructor() public {\n        carrierName = \"Carrier One\";\n        addOrderToCarrier(\"Order One\", \"Created\", block.timestamp);\n        addOrderToCarrier(\"Order Two\", \"Created\", block.timestamp);\n    }\n\n    function returnCarrierName() public view returns (string _Carrier){\n        return (carrierName);\n    }\n\n    function getNumOrders()  public view returns (uint _NumOrders){\n        return (numOrders);\n    }\n\n    function addOrderToCarrier(string _OrderNo, string _Status, uint256 _StatusDate) public  {\n        numOrders++;\n        orders[numOrders] = order(numOrders, _OrderNo, _Status, _StatusDate);\n    }\n\n    function setOrderStatus(uint _OrderId, string _Status, uint256 _StatusDate) public  {\n        orders[_OrderId].status = _Status;\n        orders[_OrderId].statusDate = _StatusDate;\n    }\n\n    function getOrder(uint _OrderId) public view returns (uint _RetOrderId,string orderNo, string status, uint256 _statusDate) {\n        return (_OrderId, orders[_OrderId].orderNo, orders[_OrderId].status, orders[_OrderId].statusDate);\n    }\n}",
  "sourcePath": "/Users/frankblau/election/contracts/carrierOrders.sol",
  "compiler": {
    "name": "solc",
    "version": "0.4.24+commit.e67f0147.Emscripten.clang"
  },
  "schemaVersion": "2.0.1",
  "updatedAt": "2018-11-04T14:04:20.577Z"
}