{
  "contractName": "POD",
  "abi": [
    {
      "constant": true,
      "inputs": [],
      "name": "orderStatusCount",
      "outputs": [
        {
          "name": "",
          "type": "uint256"
        }
      ],
      "payable": false,
      "stateMutability": "view",
      "type": "function"
    },
    {
      "constant": true,
      "inputs": [
        {
          "name": "",
          "type": "uint256"
        }
      ],
      "name": "orderStatusList",
      "outputs": [
        {
          "name": "orderStatusId",
          "type": "uint256"
        },
        {
          "name": "statusBy",
          "type": "address"
        },
        {
          "name": "status",
          "type": "string"
        },
        {
          "name": "statusTime",
          "type": "uint256"
        }
      ],
      "payable": false,
      "stateMutability": "view",
      "type": "function"
    },
    {
      "inputs": [],
      "payable": false,
      "stateMutability": "nonpayable",
      "type": "constructor"
    },
    {
      "anonymous": false,
      "inputs": [
        {
          "indexed": false,
          "name": "_orderId",
          "type": "string"
        }
      ],
      "name": "OrderAlreadySigned",
      "type": "event"
    },
    {
      "constant": true,
      "inputs": [],
      "name": "getOrder",
      "outputs": [
        {
          "name": "_orderId",
          "type": "string"
        },
        {
          "name": "_status",
          "type": "string"
        },
        {
          "name": "_signed",
          "type": "bool"
        }
      ],
      "payable": false,
      "stateMutability": "view",
      "type": "function"
    },
    {
      "constant": false,
      "inputs": [
        {
          "name": "_Carrier",
          "type": "address"
        }
      ],
      "name": "addCarrier",
      "outputs": [],
      "payable": false,
      "stateMutability": "nonpayable",
      "type": "function"
    },
    {
      "constant": false,
      "inputs": [
        {
          "name": "_status",
          "type": "string"
        }
      ],
      "name": "addOrderStatus",
      "outputs": [],
      "payable": false,
      "stateMutability": "nonpayable",
      "type": "function"
    },
    {
      "constant": true,
      "inputs": [],
      "name": "getStatusCount",
      "outputs": [
        {
          "name": "statusCount",
          "type": "uint256"
        }
      ],
      "payable": false,
      "stateMutability": "view",
      "type": "function"
    }
  ],
  "bytecode": "0x6080604052600060065534801561001557600080fd5b5033600360006101000a81548173ffffffffffffffffffffffffffffffffffffffff021916908373ffffffffffffffffffffffffffffffffffffffff1602179055506040805190810160405280600581526020017f7465737432000000000000000000000000000000000000000000000000000000815250600090805190602001906100a2929190610116565b506040805190810160405280600781526020017f4372656174656400000000000000000000000000000000000000000000000000815250600190805190602001906100ee929190610116565b506000600360146101000a81548160ff021916908315150217905550426004819055506101bb565b828054600181600116156101000203166002900490600052602060002090601f016020900481019282601f1061015757805160ff1916838001178555610185565b82800160010185558215610185579182015b82811115610184578251825591602001919060010190610169565b5b5090506101929190610196565b5090565b6101b891905b808211156101b457600081600090555060010161019c565b5090565b90565b610aee806101ca6000396000f300608060405260043610610078576000357c0100000000000000000000000000000000000000000000000000000000900463ffffffff16806314e8f8d31461007d5780632c285a2a146100c05780633c30f2e214610129578063690f8429146101545780638ada67381461017f578063d36dedd214610266575b600080fd5b34801561008957600080fd5b506100be600480360381019080803573ffffffffffffffffffffffffffffffffffffffff16906020019092919050505061036d565b005b3480156100cc57600080fd5b50610127600480360381019080803590602001908201803590602001908080601f01602080910402602001604051908101604052809392919081815260200183838082843782019150505050505091929192905050506103b1565b005b34801561013557600080fd5b5061013e6106f9565b6040518082815260200191505060405180910390f35b34801561016057600080fd5b506101696106ff565b6040518082815260200191505060405180910390f35b34801561018b57600080fd5b506101aa6004803603810190808035906020019092919050505061070c565b604051808581526020018473ffffffffffffffffffffffffffffffffffffffff1673ffffffffffffffffffffffffffffffffffffffff16815260200180602001838152602001828103825284818151815260200191508051906020019080838360005b8381101561022857808201518184015260208101905061020d565b50505050905090810190601f1680156102555780820380516001836020036101000a031916815260200191505b509550505050505060405180910390f35b34801561027257600080fd5b5061027b610803565b60405180806020018060200184151515158152602001838103835286818151815260200191508051906020019080838360005b838110156102c95780820151818401526020810190506102ae565b50505050905090810190601f1680156102f65780820380516001836020036101000a031916815260200191505b50838103825285818151815260200191508051906020019080838360005b8381101561032f578082015181840152602081019050610314565b50505050905090810190601f16801561035c5780820380516001836020036101000a031916815260200191505b509550505050505060405180910390f35b80600260006101000a81548173ffffffffffffffffffffffffffffffffffffffff021916908373ffffffffffffffffffffffffffffffffffffffff16021790555050565b6103b961095e565b60011515600360149054906101000a900460ff1615151415610442577ff369064fd9fc3fd7309c2b79b1158d6934447f67be58c334d62e4b7b38be29886040518080602001828103825260148152602001807f4f7264657220416c7265616479205369676e656400000000000000000000000081525060200191505060405180910390a16106f5565b60405160200180807f5369676e6564000000000000000000000000000000000000000000000000000081525060060190506040516020818303038152906040526040518082805190602001908083835b6020831015156104b75780518252602082019150602081019050602083039250610492565b6001836020036101000a038019825116818451168082178552505050505050905001915050604051809103902060001916826040516020018082805190602001908083835b60208310151561052157805182526020820191506020810190506020830392506104fc565b6001836020036101000a0380198251168184511680821785525050505050509050019150506040516020818303038152906040526040518082805190602001908083835b60208310151561058a5780518252602082019150602081019050602083039250610565565b6001836020036101000a03801982511681845116808217855250505050505090500191505060405180910390206000191614156105dd576001600360146101000a81548160ff0219169083151502179055505b6006600081548092919060010191905055504260058190555060806040519081016040528060065481526020013373ffffffffffffffffffffffffffffffffffffffff1681526020018381526020016005548152509050600781908060018154018082558091505090600182039060005260206000209060040201600090919290919091506000820151816000015560208201518160010160006101000a81548173ffffffffffffffffffffffffffffffffffffffff021916908373ffffffffffffffffffffffffffffffffffffffff16021790555060408201518160020190805190602001906106cf92919061099d565b506060820151816003015550505081600190805190602001906106f3929190610a1d565b505b5050565b60065481565b6000600780549050905090565b60078181548110151561071b57fe5b90600052602060002090600402016000915090508060000154908060010160009054906101000a900473ffffffffffffffffffffffffffffffffffffffff1690806002018054600181600116156101000203166002900480601f0160208091040260200160405190810160405280929190818152602001828054600181600116156101000203166002900480156107f35780601f106107c8576101008083540402835291602001916107f3565b820191906000526020600020905b8154815290600101906020018083116107d657829003601f168201915b5050505050908060030154905084565b6060806000806001600360149054906101000a900460ff16828054600181600116156101000203166002900480601f0160208091040260200160405190810160405280929190818152602001828054600181600116156101000203166002900480156108b05780601f10610885576101008083540402835291602001916108b0565b820191906000526020600020905b81548152906001019060200180831161089357829003601f168201915b50505050509250818054600181600116156101000203166002900480601f01602080910402602001604051908101604052809291908181526020018280546001816001161561010002031660029004801561094c5780601f106109215761010080835404028352916020019161094c565b820191906000526020600020905b81548152906001019060200180831161092f57829003601f168201915b50505050509150925092509250909192565b60806040519081016040528060008152602001600073ffffffffffffffffffffffffffffffffffffffff16815260200160608152602001600081525090565b828054600181600116156101000203166002900490600052602060002090601f016020900481019282601f106109de57805160ff1916838001178555610a0c565b82800160010185558215610a0c579182015b82811115610a0b5782518255916020019190600101906109f0565b5b509050610a199190610a9d565b5090565b828054600181600116156101000203166002900490600052602060002090601f016020900481019282601f10610a5e57805160ff1916838001178555610a8c565b82800160010185558215610a8c579182015b82811115610a8b578251825591602001919060010190610a70565b5b509050610a999190610a9d565b5090565b610abf91905b80821115610abb576000816000905550600101610aa3565b5090565b905600a165627a7a72305820204513aee4f88babbe4e0a81f04320ef5ed2e03a2f779fa7aae6eadbba55139d0029",
  "source": "pragma solidity 0.4.24;\n\ncontract POD {\n    // Model a POD\n\n    string orderId;\n    string lastStatus;\n    address oCarrier;\n    address owner;\n    bool signed;\n    uint256 createdTime;\n    uint256 _statusTime;\n    \n\n    struct OrderStatus {\n        uint orderStatusId;\n        address statusBy;\n        string status;\n        uint256 statusTime;\n    }\n    \n    uint public orderStatusCount = 0;\n    \n    OrderStatus[] public orderStatusList;\n    \n    event OrderAlreadySigned (string _orderId);\n\n    constructor() public{\n       owner = msg.sender;\n       orderId = \"test2\";\n       lastStatus = \"Created\";\n       signed = false;\n       createdTime = block.timestamp;\n       \n    }\n\n    function getOrder() public constant returns (string _orderId, string _status, bool _signed) {\n        return (orderId, lastStatus, signed);\n    }\n\n    function addCarrier (address _Carrier) public {\n        oCarrier = _Carrier;\n    }\n\n    function addOrderStatus(string _status) public {\n        if (signed == true) {\n            emit OrderAlreadySigned(\"Order Already Signed\");\n        } else {\n        if (keccak256(abi.encodePacked(_status)) == keccak256(abi.encodePacked(\"Signed\"))) {\n            signed = true;\n        }\n        orderStatusCount++;\n        _statusTime = block.timestamp;\n        OrderStatus memory orderStatus = OrderStatus(orderStatusCount, msg.sender, _status, _statusTime ); \n        orderStatusList.push(orderStatus);\n        lastStatus = _status;\n        }\n    }\n\n    function getStatusCount() public constant returns (uint statusCount) {\n        return orderStatusList.length;\n    }\n}",
  "sourcePath": "/Users/frankblau/election/contracts/POD.sol",
  "compiler": {
    "name": "solc",
    "version": "0.4.24+commit.e67f0147.Emscripten.clang"
  },
  "schemaVersion": "2.0.1",
  "updatedAt": "2018-11-05T22:16:43.766Z"
}